:100000000C9456000C9475000C9475000C947500BB
:100010000C9475000C9475000C9475000C9475008C
:100020000C9475000C9475000C9475000C9475007C
:100030000C9475000C9475000C9475000C9475006C
:100040000C9475000C9475000C9475000C9475005C
:100050000C9475000C9475000C9475000C9475004C
:100060000C9475000C9475000C9475000C9475003C
:100070000C9475000C9475000C9475000C9475002C
:100080000C9475000C9475000C947500890199010D
:10009000A901BB01F701FE01100217023F026D0228
:1000A00042026D0245026D0259026D0211241FBE0B
:1000B000CFEFD0E4DEBFCDBF11E0A0E0B1E0E0E6DD
:1000C000F8E000E00BBF02C007900D92AE32B1071E
:1000D000D9F721E0AEE2B1E001C01D92A633B2072C
:1000E000E1F70E9472020C942E040C940000CF934E
:1000F000DF9300D01F92CDB7DEB789837B836A83FD
:1001000089818A3031F48A819B81BC018DE00E9413
:10011000770080EC90E0FC018081882F90E0807275
:100120009927892BB1F386EC90E02981FC0120838B
:1001300080E090E00F900F900F90DF91CF910895A5
:100140000F931F93CF93DF9300D000D0CDB7DEB7CE
:1001500069837A838B839C838091300190913101F4
:10016000A0913201B09133019C01AD0169817A8186
:100170008B819C810E949A02882309F477C020E039
:1001800030E0A90169817A818B819C810E949A0269
:10019000882351F481E990E021E930E0F9012081E0
:1001A0002870FC01208309C081E990E021E930E05A
:1001B000F90120812360FC01208328E539E344E72D
:1001C0005FE369817A818B819C810E949A028823F6
:1001D00044F488E990E02FEF3FEFFC013183208366
:1001E00034C020E034E244EF56E469817A818B81A7
:1001F0009C810E94BC03181634F488E990E0FC014D
:100200001182108222C008E910E020E030E040E0D6
:1002100053E469817A818B819C810E94C103DC0156
:10022000CB019C01AD0160E074E284EF9AE40E948E
:100230009F02DC01CB01BC01CD010E941103DC0156
:10024000CB010197F8019183808384E990E0FC0160
:100250001182108289819A81AB81BC8180933001A7
:1002600090933101A0933201B093330100000F90BD
:100270000F900F900F90DF91CF911F910F910895E4
:10028000CF93DF93CDB7DEB780E990E020E4FC01A7
:10029000208381E990E02BE0FC01208360E070E0A6
:1002A000CB010E94A0000000DF91CF910895CF9371
:1002B000DF93CDB7DEB780E990E0FC01108281E9E1
:1002C00090E0FC0110820000DF91CF910895CF9360
:1002D000DF93CDB7DEB780E290E0FC0180818095AE
:1002E000877080932F018091340190913501CC016A
:1002F000A0E0B0E040E050E027E030E0841B950B48
:100300002817390708F4A6C08A5B9F4FFC010C949C
:10031000910280912F01823039F482E090E0909335
:1003200035018093340196C010923501109234014A
:1003300091C080912F01823029F0109235011092E6
:10034000340188C081E090E09093350180933401BE
:1003500081C080912F01823039F482E090E0909347
:1003600035018093340176C083E090E090933501AD
:10037000809334016FC080912F01813089F4809186
:100380002E01873008F065C080912E018F5F809329
:100390002E0184E090E0909335018093340159C0A0
:1003A00080912F01843089F480912E01882309F4F3
:1003B00050C080912E01815080932E0186E090E004
:1003C000909335018093340144C080912F01823095
:1003D00039F481E090E0909335018093340139C085
:1003E00083E090E0909335018093340132C085E042
:1003F00090E090933501809334012CC080912F01BF
:10040000813039F485E090E0909335018093340198
:1004100021C083E090E090933501809334011AC0AD
:1004200087E090E0909335018093340113C0809170
:100430002F01843039F487E090E090933501809368
:10044000340108C083E090E090933501809334013B
:1004500001C000008091340190913501CC01A0E0F1
:10046000B0E040E050E027E030E0841B950B281717
:100470003907A0F1825B9F4FFC010C9491020E940E
:1004800057012CC00E94400129C080912E01882F65
:1004900090E0880F991F880F991F825F9E4FFC0183
:1004A00080819181A281B381BC01CD010E94A00015
:1004B00015C080912E01882F90E0880F991F880F1A
:1004C000991F825F9E4FFC0180819181A281B3813F
:1004D000BC01CD010E94A00001C000000000DF911E
:1004E000CF910895CF93DF93CDB7DEB781E290E04F
:1004F000FC01108282E290E02FEFFC01208384E275
:1005000090E02FEFFC01208385E290E0FC01108257
:100510000E94400110923501109234010E9467013F
:10052000FDCFEE0FFF1F0024001C0BBE0790F691BD
:10053000E02D09940E94470308F481E008950E9489
:10054000B3020C9482030E947B0358F00E94740350
:1005500040F029F45F3F29F00C946B0351110C9487
:10056000B6030C9471030E94930368F39923B1F3CB
:10057000552391F3951B550BBB27AA2762177307C9
:10058000840738F09F5F5F4F220F331F441FAA1F5D
:10059000A9F335D00E2E3AF0E0E832D09150504019
:1005A000E695001CCAF72BD0FE2F29D0660F771FC7
:1005B000881FBB1F261737074807AB07B0E809F0AD
:1005C000BB0B802DBF01FF2793585F4F3AF09E3F32
:1005D000510578F00C946B030C94B6035F3FE4F381
:1005E000983ED4F3869577956795B795F7959F5F75
:1005F000C9F7880F911D9695879597F90895E1E0C1
:10060000660F771F881FBB1F621773078407BA071F
:1006100020F0621B730B840BBA0BEE1F88F7E0957A
:1006200008950E9418036894B1110C94B6030895BC
:100630000E949B0388F09F5798F0B92F9927B751D4
:10064000B0F0E1F0660F771F881F991F1AF0BA9576
:10065000C9F714C0B13091F00E94B503B1E008951C
:100660000C94B503672F782F8827B85F39F0B93F0E
:10067000CCF3869577956795B395D9F73EF4909529
:100680008095709561957F4F8F4F9F4F0895990F7B
:100690000008550FAA0BE0E8FEEF16161706E8074C
:1006A000F907C0F012161306E407F50798F0621B6D
:1006B000730B840B950B39F40A2661F0232B242B42
:1006C000252B21F408950A2609F4A140A6958FEF61
:1006D000811D811D089597F99F6780E870E060E0B3
:1006E00008959FEF80EC089500240A9416161706CB
:1006F00018060906089500240A9412161306140613
:1007000005060895092E0394000C11F4882352F075
:10071000BB0F40F4BF2B11F460FF04C06F5F7F4F2D
:100720008F4F9F4F089557FD9058440F551F59F014
:100730005F3F71F04795880F97FB991F61F09F3FCE
:1007400079F087950895121613061406551FF2CFF7
:100750004695F1DF08C0161617061806991FF1CF47
:1007600086957105610508940895E894BB2766276E
:100770007727CB0197F908950E94470308F48FEF7C
:1007800008950E94D4030C9482030E94740338F0ED
:100790000E947B0320F0952311F00C946B030C94C2
:1007A000710311240C94B6030E94930370F3959F78
:1007B000C1F3950F50E0551F629FF001729FBB2758
:1007C000F00DB11D639FAA27F00DB11DAA1F649FF4
:1007D0006627B00DA11D661F829F2227B00DA11DA7
:1007E000621F739FB00DA11D621F839FA00D611D2D
:1007F000221F749F3327A00D611D231F849F600D4E
:10080000211D822F762F6A2F11249F5750409AF076
:10081000F1F088234AF0EE0FFF1FBB1F661F771F02
:10082000881F91505040A9F79E3F510580F00C94CD
:100830006B030C94B6035F3FE4F3983ED4F38695C4
:1008400077956795B795F795E7959F5FC1F7FE2B6D
:10085000880F911D9695879597F90895F894FFCF85
:100860000000000200000000770000000000A4D09B
:1008700082437BD49243A4D0A443719DAE43000035
:0E088000C4430000DC43A4F0F64300D0024461
:00000001FF
